{
  "_format": "hh-sol-artifact-1",
  "contractName": "BasicNftTwo",
  "sourceName": "contracts/tests/BasicNftTwo.sol",
  "abi": [
    {
      "inputs": [],
      "stateMutability": "nonpayable",
      "type": "constructor"
    },
    {
      "anonymous": false,
      "inputs": [
        {
          "indexed": true,
          "internalType": "address",
          "name": "owner",
          "type": "address"
        },
        {
          "indexed": true,
          "internalType": "address",
          "name": "approved",
          "type": "address"
        },
        {
          "indexed": true,
          "internalType": "uint256",
          "name": "tokenId",
          "type": "uint256"
        }
      ],
      "name": "Approval",
      "type": "event"
    },
    {
      "anonymous": false,
      "inputs": [
        {
          "indexed": true,
          "internalType": "address",
          "name": "owner",
          "type": "address"
        },
        {
          "indexed": true,
          "internalType": "address",
          "name": "operator",
          "type": "address"
        },
        {
          "indexed": false,
          "internalType": "bool",
          "name": "approved",
          "type": "bool"
        }
      ],
      "name": "ApprovalForAll",
      "type": "event"
    },
    {
      "anonymous": false,
      "inputs": [
        {
          "indexed": true,
          "internalType": "uint256",
          "name": "tokenId",
          "type": "uint256"
        }
      ],
      "name": "DogMinted",
      "type": "event"
    },
    {
      "anonymous": false,
      "inputs": [
        {
          "indexed": true,
          "internalType": "address",
          "name": "from",
          "type": "address"
        },
        {
          "indexed": true,
          "internalType": "address",
          "name": "to",
          "type": "address"
        },
        {
          "indexed": true,
          "internalType": "uint256",
          "name": "tokenId",
          "type": "uint256"
        }
      ],
      "name": "Transfer",
      "type": "event"
    },
    {
      "inputs": [],
      "name": "TOKEN_URI",
      "outputs": [
        {
          "internalType": "string",
          "name": "",
          "type": "string"
        }
      ],
      "stateMutability": "view",
      "type": "function"
    },
    {
      "inputs": [
        {
          "internalType": "address",
          "name": "to",
          "type": "address"
        },
        {
          "internalType": "uint256",
          "name": "tokenId",
          "type": "uint256"
        }
      ],
      "name": "approve",
      "outputs": [],
      "stateMutability": "nonpayable",
      "type": "function"
    },
    {
      "inputs": [
        {
          "internalType": "address",
          "name": "owner",
          "type": "address"
        }
      ],
      "name": "balanceOf",
      "outputs": [
        {
          "internalType": "uint256",
          "name": "",
          "type": "uint256"
        }
      ],
      "stateMutability": "view",
      "type": "function"
    },
    {
      "inputs": [
        {
          "internalType": "uint256",
          "name": "tokenId",
          "type": "uint256"
        }
      ],
      "name": "getApproved",
      "outputs": [
        {
          "internalType": "address",
          "name": "",
          "type": "address"
        }
      ],
      "stateMutability": "view",
      "type": "function"
    },
    {
      "inputs": [],
      "name": "getTokenCounter",
      "outputs": [
        {
          "internalType": "uint256",
          "name": "",
          "type": "uint256"
        }
      ],
      "stateMutability": "view",
      "type": "function"
    },
    {
      "inputs": [
        {
          "internalType": "address",
          "name": "owner",
          "type": "address"
        },
        {
          "internalType": "address",
          "name": "operator",
          "type": "address"
        }
      ],
      "name": "isApprovedForAll",
      "outputs": [
        {
          "internalType": "bool",
          "name": "",
          "type": "bool"
        }
      ],
      "stateMutability": "view",
      "type": "function"
    },
    {
      "inputs": [
        {
          "internalType": "string",
          "name": "temptokenURI",
          "type": "string"
        }
      ],
      "name": "mintNft",
      "outputs": [],
      "stateMutability": "nonpayable",
      "type": "function"
    },
    {
      "inputs": [],
      "name": "name",
      "outputs": [
        {
          "internalType": "string",
          "name": "",
          "type": "string"
        }
      ],
      "stateMutability": "view",
      "type": "function"
    },
    {
      "inputs": [
        {
          "internalType": "uint256",
          "name": "tokenId",
          "type": "uint256"
        }
      ],
      "name": "ownerOf",
      "outputs": [
        {
          "internalType": "address",
          "name": "",
          "type": "address"
        }
      ],
      "stateMutability": "view",
      "type": "function"
    },
    {
      "inputs": [
        {
          "internalType": "address",
          "name": "from",
          "type": "address"
        },
        {
          "internalType": "address",
          "name": "to",
          "type": "address"
        },
        {
          "internalType": "uint256",
          "name": "tokenId",
          "type": "uint256"
        }
      ],
      "name": "safeTransferFrom",
      "outputs": [],
      "stateMutability": "nonpayable",
      "type": "function"
    },
    {
      "inputs": [
        {
          "internalType": "address",
          "name": "from",
          "type": "address"
        },
        {
          "internalType": "address",
          "name": "to",
          "type": "address"
        },
        {
          "internalType": "uint256",
          "name": "tokenId",
          "type": "uint256"
        },
        {
          "internalType": "bytes",
          "name": "data",
          "type": "bytes"
        }
      ],
      "name": "safeTransferFrom",
      "outputs": [],
      "stateMutability": "nonpayable",
      "type": "function"
    },
    {
      "inputs": [
        {
          "internalType": "address",
          "name": "operator",
          "type": "address"
        },
        {
          "internalType": "bool",
          "name": "approved",
          "type": "bool"
        }
      ],
      "name": "setApprovalForAll",
      "outputs": [],
      "stateMutability": "nonpayable",
      "type": "function"
    },
    {
      "inputs": [
        {
          "internalType": "bytes4",
          "name": "interfaceId",
          "type": "bytes4"
        }
      ],
      "name": "supportsInterface",
      "outputs": [
        {
          "internalType": "bool",
          "name": "",
          "type": "bool"
        }
      ],
      "stateMutability": "view",
      "type": "function"
    },
    {
      "inputs": [],
      "name": "symbol",
      "outputs": [
        {
          "internalType": "string",
          "name": "",
          "type": "string"
        }
      ],
      "stateMutability": "view",
      "type": "function"
    },
    {
      "inputs": [
        {
          "internalType": "uint256",
          "name": "tokenId",
          "type": "uint256"
        }
      ],
      "name": "tokenURI",
      "outputs": [
        {
          "internalType": "string",
          "name": "",
          "type": "string"
        }
      ],
      "stateMutability": "view",
      "type": "function"
    },
    {
      "inputs": [
        {
          "internalType": "address",
          "name": "from",
          "type": "address"
        },
        {
          "internalType": "address",
          "name": "to",
          "type": "address"
        },
        {
          "internalType": "uint256",
          "name": "tokenId",
          "type": "uint256"
        }
      ],
      "name": "transferFrom",
      "outputs": [],
      "stateMutability": "nonpayable",
      "type": "function"
    }
  ],
  "bytecode": "0x60806040523480156200001157600080fd5b506040518060400160405280600581526020017f446f6769650000000000000000000000000000000000000000000000000000008152506040518060400160405280600381526020017f444f470000000000000000000000000000000000000000000000000000000000815250816000908051906020019062000096929190620000c0565b508060019080519060200190620000af929190620000c0565b5050506000600881905550620001d5565b828054620000ce9062000170565b90600052602060002090601f016020900481019282620000f257600085556200013e565b82601f106200010d57805160ff19168380011785556200013e565b828001600101855582156200013e579182015b828111156200013d57825182559160200191906001019062000120565b5b5090506200014d919062000151565b5090565b5b808211156200016c57600081600090555060010162000152565b5090565b600060028204905060018216806200018957607f821691505b60208210811415620001a0576200019f620001a6565b5b50919050565b7f4e487b7100000000000000000000000000000000000000000000000000000000600052602260045260246000fd5b61287780620001e56000396000f3fe608060405234801561001057600080fd5b50600436106101005760003560e01c806370a0823111610097578063b88d4fde11610066578063b88d4fde146102ad578063c87b56dd146102c9578063da86f4a9146102f9578063e985e9c51461031557610100565b806370a082311461022557806378ce90351461025557806395d89b4114610273578063a22cb4651461029157610100565b806323b872dd116100d357806323b872dd1461019f57806342842e0e146101bb5780636352211e146101d75780636e02007d1461020757610100565b806301ffc9a71461010557806306fdde0314610135578063081812fc14610153578063095ea7b314610183575b600080fd5b61011f600480360381019061011a9190611bd1565b610345565b60405161012c9190611f6e565b60405180910390f35b61013d610427565b60405161014a9190611f89565b60405180910390f35b61016d60048036038101906101689190611c74565b6104b9565b60405161017a9190611f07565b60405180910390f35b61019d60048036038101906101989190611b91565b6104ff565b005b6101b960048036038101906101b49190611a7b565b610617565b005b6101d560048036038101906101d09190611a7b565b610677565b005b6101f160048036038101906101ec9190611c74565b610697565b6040516101fe9190611f07565b60405180910390f35b61020f61071e565b60405161021c919061214b565b60405180910390f35b61023f600480360381019061023a9190611a0e565b610728565b60405161024c919061214b565b60405180910390f35b61025d6107e0565b60405161026a9190611f89565b60405180910390f35b61027b61086e565b6040516102889190611f89565b60405180910390f35b6102ab60048036038101906102a69190611b51565b610900565b005b6102c760048036038101906102c29190611ace565b610916565b005b6102e360048036038101906102de9190611c74565b610978565b6040516102f09190611f89565b60405180910390f35b610313600480360381019061030e9190611c2b565b610a54565b005b61032f600480360381019061032a9190611a3b565b610aca565b60405161033c9190611f6e565b60405180910390f35b60007f80ac58cd000000000000000000000000000000000000000000000000000000007bffffffffffffffffffffffffffffffffffffffffffffffffffffffff1916827bffffffffffffffffffffffffffffffffffffffffffffffffffffffff1916148061041057507f5b5e139f000000000000000000000000000000000000000000000000000000007bffffffffffffffffffffffffffffffffffffffffffffffffffffffff1916827bffffffffffffffffffffffffffffffffffffffffffffffffffffffff1916145b80610420575061041f82610b5e565b5b9050919050565b60606000805461043690612365565b80601f016020809104026020016040519081016040528092919081815260200182805461046290612365565b80156104af5780601f10610484576101008083540402835291602001916104af565b820191906000526020600020905b81548152906001019060200180831161049257829003601f168201915b5050505050905090565b60006104c482610bc8565b6004600083815260200190815260200160002060009054906101000a900473ffffffffffffffffffffffffffffffffffffffff169050919050565b600061050a82610697565b90508073ffffffffffffffffffffffffffffffffffffffff168373ffffffffffffffffffffffffffffffffffffffff16141561057b576040517f08c379a00000000000000000000000000000000000000000000000000000000081526004016105729061210b565b60405180910390fd5b8073ffffffffffffffffffffffffffffffffffffffff1661059a610c13565b73ffffffffffffffffffffffffffffffffffffffff1614806105c957506105c8816105c3610c13565b610aca565b5b610608576040517f08c379a00000000000000000000000000000000000000000000000000000000081526004016105ff9061212b565b60405180910390fd5b6106128383610c1b565b505050565b610628610622610c13565b82610cd4565b610667576040517f08c379a000000000000000000000000000000000000000000000000000000000815260040161065e90611fab565b60405180910390fd5b610672838383610d69565b505050565b61069283838360405180602001604052806000815250610916565b505050565b6000806106a383611063565b9050600073ffffffffffffffffffffffffffffffffffffffff168173ffffffffffffffffffffffffffffffffffffffff161415610715576040517f08c379a000000000000000000000000000000000000000000000000000000000815260040161070c906120eb565b60405180910390fd5b80915050919050565b6000600854905090565b60008073ffffffffffffffffffffffffffffffffffffffff168273ffffffffffffffffffffffffffffffffffffffff161415610799576040517f08c379a00000000000000000000000000000000000000000000000000000000081526004016107909061206b565b60405180910390fd5b600360008373ffffffffffffffffffffffffffffffffffffffff1673ffffffffffffffffffffffffffffffffffffffff168152602001908152602001600020549050919050565b600780546107ed90612365565b80601f016020809104026020016040519081016040528092919081815260200182805461081990612365565b80156108665780601f1061083b57610100808354040283529160200191610866565b820191906000526020600020905b81548152906001019060200180831161084957829003601f168201915b505050505081565b60606001805461087d90612365565b80601f01602080910402602001604051908101604052809291908181526020018280546108a990612365565b80156108f65780601f106108cb576101008083540402835291602001916108f6565b820191906000526020600020905b8154815290600101906020018083116108d957829003601f168201915b5050505050905090565b61091261090b610c13565b83836110a0565b5050565b610927610921610c13565b83610cd4565b610966576040517f08c379a000000000000000000000000000000000000000000000000000000000815260040161095d90611fab565b60405180910390fd5b6109728484848461120d565b50505050565b606061098382611269565b6109c2576040517f08c379a00000000000000000000000000000000000000000000000000000000081526004016109b9906120cb565b60405180910390fd5b600780546109cf90612365565b80601f01602080910402602001604051908101604052809291908181526020018280546109fb90612365565b8015610a485780601f10610a1d57610100808354040283529160200191610a48565b820191906000526020600020905b815481529060010190602001808311610a2b57829003601f168201915b50505050509050919050565b610a60336008546112aa565b610a6c600854826114c8565b6008547fef1da42f89c42f48befa143007e6f5efd84a2d1cc3dc97c5edd2d3373220f66d60405160405180910390a28060079080519060200190610ab1929190611822565b506001600854610ac19190612225565b60088190555050565b6000600560008473ffffffffffffffffffffffffffffffffffffffff1673ffffffffffffffffffffffffffffffffffffffff16815260200190815260200160002060008373ffffffffffffffffffffffffffffffffffffffff1673ffffffffffffffffffffffffffffffffffffffff16815260200190815260200160002060009054906101000a900460ff16905092915050565b60007f01ffc9a7000000000000000000000000000000000000000000000000000000007bffffffffffffffffffffffffffffffffffffffffffffffffffffffff1916827bffffffffffffffffffffffffffffffffffffffffffffffffffffffff1916149050919050565b610bd181611269565b610c10576040517f08c379a0000000000000000000000000000000000000000000000000000000008152600401610c07906120eb565b60405180910390fd5b50565b600033905090565b816004600083815260200190815260200160002060006101000a81548173ffffffffffffffffffffffffffffffffffffffff021916908373ffffffffffffffffffffffffffffffffffffffff160217905550808273ffffffffffffffffffffffffffffffffffffffff16610c8e83610697565b73ffffffffffffffffffffffffffffffffffffffff167f8c5be1e5ebec7d5bd14f71427d1e84f3dd0314c0f7b2291e5b200ac8c7c3b92560405160405180910390a45050565b600080610ce083610697565b90508073ffffffffffffffffffffffffffffffffffffffff168473ffffffffffffffffffffffffffffffffffffffff161480610d225750610d218185610aca565b5b80610d6057508373ffffffffffffffffffffffffffffffffffffffff16610d48846104b9565b73ffffffffffffffffffffffffffffffffffffffff16145b91505092915050565b8273ffffffffffffffffffffffffffffffffffffffff16610d8982610697565b73ffffffffffffffffffffffffffffffffffffffff1614610ddf576040517f08c379a0000000000000000000000000000000000000000000000000000000008152600401610dd690611feb565b60405180910390fd5b600073ffffffffffffffffffffffffffffffffffffffff168273ffffffffffffffffffffffffffffffffffffffff161415610e4f576040517f08c379a0000000000000000000000000000000000000000000000000000000008152600401610e469061202b565b60405180910390fd5b610e5c838383600161153c565b8273ffffffffffffffffffffffffffffffffffffffff16610e7c82610697565b73ffffffffffffffffffffffffffffffffffffffff1614610ed2576040517f08c379a0000000000000000000000000000000000000000000000000000000008152600401610ec990611feb565b60405180910390fd5b6004600082815260200190815260200160002060006101000a81549073ffffffffffffffffffffffffffffffffffffffff02191690556001600360008573ffffffffffffffffffffffffffffffffffffffff1673ffffffffffffffffffffffffffffffffffffffff168152602001908152602001600020600082825403925050819055506001600360008473ffffffffffffffffffffffffffffffffffffffff1673ffffffffffffffffffffffffffffffffffffffff16815260200190815260200160002060008282540192505081905550816002600083815260200190815260200160002060006101000a81548173ffffffffffffffffffffffffffffffffffffffff021916908373ffffffffffffffffffffffffffffffffffffffff160217905550808273ffffffffffffffffffffffffffffffffffffffff168473ffffffffffffffffffffffffffffffffffffffff167fddf252ad1be2c89b69c2b068fc378daa952ba7f163c4a11628f55a4df523b3ef60405160405180910390a461105e8383836001611662565b505050565b60006002600083815260200190815260200160002060009054906101000a900473ffffffffffffffffffffffffffffffffffffffff169050919050565b8173ffffffffffffffffffffffffffffffffffffffff168373ffffffffffffffffffffffffffffffffffffffff16141561110f576040517f08c379a00000000000000000000000000000000000000000000000000000000081526004016111069061204b565b60405180910390fd5b80600560008573ffffffffffffffffffffffffffffffffffffffff1673ffffffffffffffffffffffffffffffffffffffff16815260200190815260200160002060008473ffffffffffffffffffffffffffffffffffffffff1673ffffffffffffffffffffffffffffffffffffffff16815260200190815260200160002060006101000a81548160ff0219169083151502179055508173ffffffffffffffffffffffffffffffffffffffff168373ffffffffffffffffffffffffffffffffffffffff167f17307eab39ab6107e8899845ad3d59bd9653f200f220920489ca2b5937696c31836040516112009190611f6e565b60405180910390a3505050565b611218848484610d69565b61122484848484611668565b611263576040517f08c379a000000000000000000000000000000000000000000000000000000000815260040161125a90611fcb565b60405180910390fd5b50505050565b60008073ffffffffffffffffffffffffffffffffffffffff1661128b83611063565b73ffffffffffffffffffffffffffffffffffffffff1614159050919050565b600073ffffffffffffffffffffffffffffffffffffffff168273ffffffffffffffffffffffffffffffffffffffff16141561131a576040517f08c379a0000000000000000000000000000000000000000000000000000000008152600401611311906120ab565b60405180910390fd5b61132381611269565b15611363576040517f08c379a000000000000000000000000000000000000000000000000000000000815260040161135a9061200b565b60405180910390fd5b61137160008383600161153c565b61137a81611269565b156113ba576040517f08c379a00000000000000000000000000000000000000000000000000000000081526004016113b19061200b565b60405180910390fd5b6001600360008473ffffffffffffffffffffffffffffffffffffffff1673ffffffffffffffffffffffffffffffffffffffff16815260200190815260200160002060008282540192505081905550816002600083815260200190815260200160002060006101000a81548173ffffffffffffffffffffffffffffffffffffffff021916908373ffffffffffffffffffffffffffffffffffffffff160217905550808273ffffffffffffffffffffffffffffffffffffffff16600073ffffffffffffffffffffffffffffffffffffffff167fddf252ad1be2c89b69c2b068fc378daa952ba7f163c4a11628f55a4df523b3ef60405160405180910390a46114c4600083836001611662565b5050565b6114d182611269565b611510576040517f08c379a00000000000000000000000000000000000000000000000000000000081526004016115079061208b565b60405180910390fd5b80600660008481526020019081526020016000209080519060200190611537929190611822565b505050565b600181111561165c57600073ffffffffffffffffffffffffffffffffffffffff168473ffffffffffffffffffffffffffffffffffffffff16146115d05780600360008673ffffffffffffffffffffffffffffffffffffffff1673ffffffffffffffffffffffffffffffffffffffff16815260200190815260200160002060008282546115c8919061227b565b925050819055505b600073ffffffffffffffffffffffffffffffffffffffff168373ffffffffffffffffffffffffffffffffffffffff161461165b5780600360008573ffffffffffffffffffffffffffffffffffffffff1673ffffffffffffffffffffffffffffffffffffffff16815260200190815260200160002060008282546116539190612225565b925050819055505b5b50505050565b50505050565b60006116898473ffffffffffffffffffffffffffffffffffffffff166117ff565b156117f2578373ffffffffffffffffffffffffffffffffffffffff1663150b7a026116b2610c13565b8786866040518563ffffffff1660e01b81526004016116d49493929190611f22565b602060405180830381600087803b1580156116ee57600080fd5b505af192505050801561171f57506040513d601f19601f8201168201806040525081019061171c9190611bfe565b60015b6117a2573d806000811461174f576040519150601f19603f3d011682016040523d82523d6000602084013e611754565b606091505b5060008151141561179a576040517f08c379a000000000000000000000000000000000000000000000000000000000815260040161179190611fcb565b60405180910390fd5b805181602001fd5b63150b7a0260e01b7bffffffffffffffffffffffffffffffffffffffffffffffffffffffff1916817bffffffffffffffffffffffffffffffffffffffffffffffffffffffff1916149150506117f7565b600190505b949350505050565b6000808273ffffffffffffffffffffffffffffffffffffffff163b119050919050565b82805461182e90612365565b90600052602060002090601f0160209004810192826118505760008555611897565b82601f1061186957805160ff1916838001178555611897565b82800160010185558215611897579182015b8281111561189657825182559160200191906001019061187b565b5b5090506118a491906118a8565b5090565b5b808211156118c15760008160009055506001016118a9565b5090565b60006118d86118d38461218b565b612166565b9050828152602081018484840111156118f4576118f361245a565b5b6118ff848285612323565b509392505050565b600061191a611915846121bc565b612166565b9050828152602081018484840111156119365761193561245a565b5b611941848285612323565b509392505050565b600081359050611958816127e5565b92915050565b60008135905061196d816127fc565b92915050565b60008135905061198281612813565b92915050565b60008151905061199781612813565b92915050565b600082601f8301126119b2576119b1612455565b5b81356119c28482602086016118c5565b91505092915050565b600082601f8301126119e0576119df612455565b5b81356119f0848260208601611907565b91505092915050565b600081359050611a088161282a565b92915050565b600060208284031215611a2457611a23612464565b5b6000611a3284828501611949565b91505092915050565b60008060408385031215611a5257611a51612464565b5b6000611a6085828601611949565b9250506020611a7185828601611949565b9150509250929050565b600080600060608486031215611a9457611a93612464565b5b6000611aa286828701611949565b9350506020611ab386828701611949565b9250506040611ac4868287016119f9565b9150509250925092565b60008060008060808587031215611ae857611ae7612464565b5b6000611af687828801611949565b9450506020611b0787828801611949565b9350506040611b18878288016119f9565b925050606085013567ffffffffffffffff811115611b3957611b3861245f565b5b611b458782880161199d565b91505092959194509250565b60008060408385031215611b6857611b67612464565b5b6000611b7685828601611949565b9250506020611b878582860161195e565b9150509250929050565b60008060408385031215611ba857611ba7612464565b5b6000611bb685828601611949565b9250506020611bc7858286016119f9565b9150509250929050565b600060208284031215611be757611be6612464565b5b6000611bf584828501611973565b91505092915050565b600060208284031215611c1457611c13612464565b5b6000611c2284828501611988565b91505092915050565b600060208284031215611c4157611c40612464565b5b600082013567ffffffffffffffff811115611c5f57611c5e61245f565b5b611c6b848285016119cb565b91505092915050565b600060208284031215611c8a57611c89612464565b5b6000611c98848285016119f9565b91505092915050565b611caa816122af565b82525050565b611cb9816122c1565b82525050565b6000611cca826121ed565b611cd48185612203565b9350611ce4818560208601612332565b611ced81612469565b840191505092915050565b6000611d03826121f8565b611d0d8185612214565b9350611d1d818560208601612332565b611d2681612469565b840191505092915050565b6000611d3e602d83612214565b9150611d498261247a565b604082019050919050565b6000611d61603283612214565b9150611d6c826124c9565b604082019050919050565b6000611d84602583612214565b9150611d8f82612518565b604082019050919050565b6000611da7601c83612214565b9150611db282612567565b602082019050919050565b6000611dca602483612214565b9150611dd582612590565b604082019050919050565b6000611ded601983612214565b9150611df8826125df565b602082019050919050565b6000611e10602983612214565b9150611e1b82612608565b604082019050919050565b6000611e33602e83612214565b9150611e3e82612657565b604082019050919050565b6000611e56602083612214565b9150611e61826126a6565b602082019050919050565b6000611e79602f83612214565b9150611e84826126cf565b604082019050919050565b6000611e9c601883612214565b9150611ea78261271e565b602082019050919050565b6000611ebf602183612214565b9150611eca82612747565b604082019050919050565b6000611ee2603d83612214565b9150611eed82612796565b604082019050919050565b611f0181612319565b82525050565b6000602082019050611f1c6000830184611ca1565b92915050565b6000608082019050611f376000830187611ca1565b611f446020830186611ca1565b611f516040830185611ef8565b8181036060830152611f638184611cbf565b905095945050505050565b6000602082019050611f836000830184611cb0565b92915050565b60006020820190508181036000830152611fa38184611cf8565b905092915050565b60006020820190508181036000830152611fc481611d31565b9050919050565b60006020820190508181036000830152611fe481611d54565b9050919050565b6000602082019050818103600083015261200481611d77565b9050919050565b6000602082019050818103600083015261202481611d9a565b9050919050565b6000602082019050818103600083015261204481611dbd565b9050919050565b6000602082019050818103600083015261206481611de0565b9050919050565b6000602082019050818103600083015261208481611e03565b9050919050565b600060208201905081810360008301526120a481611e26565b9050919050565b600060208201905081810360008301526120c481611e49565b9050919050565b600060208201905081810360008301526120e481611e6c565b9050919050565b6000602082019050818103600083015261210481611e8f565b9050919050565b6000602082019050818103600083015261212481611eb2565b9050919050565b6000602082019050818103600083015261214481611ed5565b9050919050565b60006020820190506121606000830184611ef8565b92915050565b6000612170612181565b905061217c8282612397565b919050565b6000604051905090565b600067ffffffffffffffff8211156121a6576121a5612426565b5b6121af82612469565b9050602081019050919050565b600067ffffffffffffffff8211156121d7576121d6612426565b5b6121e082612469565b9050602081019050919050565b600081519050919050565b600081519050919050565b600082825260208201905092915050565b600082825260208201905092915050565b600061223082612319565b915061223b83612319565b9250827fffffffffffffffffffffffffffffffffffffffffffffffffffffffffffffffff038211156122705761226f6123c8565b5b828201905092915050565b600061228682612319565b915061229183612319565b9250828210156122a4576122a36123c8565b5b828203905092915050565b60006122ba826122f9565b9050919050565b60008115159050919050565b60007fffffffff0000000000000000000000000000000000000000000000000000000082169050919050565b600073ffffffffffffffffffffffffffffffffffffffff82169050919050565b6000819050919050565b82818337600083830152505050565b60005b83811015612350578082015181840152602081019050612335565b8381111561235f576000848401525b50505050565b6000600282049050600182168061237d57607f821691505b60208210811415612391576123906123f7565b5b50919050565b6123a082612469565b810181811067ffffffffffffffff821117156123bf576123be612426565b5b80604052505050565b7f4e487b7100000000000000000000000000000000000000000000000000000000600052601160045260246000fd5b7f4e487b7100000000000000000000000000000000000000000000000000000000600052602260045260246000fd5b7f4e487b7100000000000000000000000000000000000000000000000000000000600052604160045260246000fd5b600080fd5b600080fd5b600080fd5b600080fd5b6000601f19601f8301169050919050565b7f4552433732313a2063616c6c6572206973206e6f7420746f6b656e206f776e6560008201527f72206f7220617070726f76656400000000000000000000000000000000000000602082015250565b7f4552433732313a207472616e7366657220746f206e6f6e20455243373231526560008201527f63656976657220696d706c656d656e7465720000000000000000000000000000602082015250565b7f4552433732313a207472616e736665722066726f6d20696e636f72726563742060008201527f6f776e6572000000000000000000000000000000000000000000000000000000602082015250565b7f4552433732313a20746f6b656e20616c7265616479206d696e74656400000000600082015250565b7f4552433732313a207472616e7366657220746f20746865207a65726f2061646460008201527f7265737300000000000000000000000000000000000000000000000000000000602082015250565b7f4552433732313a20617070726f766520746f2063616c6c657200000000000000600082015250565b7f4552433732313a2061646472657373207a65726f206973206e6f74206120766160008201527f6c6964206f776e65720000000000000000000000000000000000000000000000602082015250565b7f45524337323155524953746f726167653a2055524920736574206f66206e6f6e60008201527f6578697374656e7420746f6b656e000000000000000000000000000000000000602082015250565b7f4552433732313a206d696e7420746f20746865207a65726f2061646472657373600082015250565b7f4552433732314d657461646174613a2055524920717565727920666f72206e6f60008201527f6e6578697374656e7420746f6b656e0000000000000000000000000000000000602082015250565b7f4552433732313a20696e76616c696420746f6b656e2049440000000000000000600082015250565b7f4552433732313a20617070726f76616c20746f2063757272656e74206f776e6560008201527f7200000000000000000000000000000000000000000000000000000000000000602082015250565b7f4552433732313a20617070726f76652063616c6c6572206973206e6f7420746f60008201527f6b656e206f776e6572206f7220617070726f76656420666f7220616c6c000000602082015250565b6127ee816122af565b81146127f957600080fd5b50565b612805816122c1565b811461281057600080fd5b50565b61281c816122cd565b811461282757600080fd5b50565b61283381612319565b811461283e57600080fd5b5056fea26469706673582212204ea7b13a435c5bf068b0718436e66dfb93f9017995b84bb632dd8dbe557d377f64736f6c63430008070033",
  "linkReferences": {},
  "deployedLinkReferences": {}
}