{
  "_format": "hh-sol-artifact-1",
  "contractName": "testnft",
  "sourceName": "contracts/tests/testnft.sol",
  "abi": [
    {
      "inputs": [],
      "stateMutability": "nonpayable",
      "type": "constructor"
    },
    {
      "anonymous": false,
      "inputs": [
        {
          "indexed": true,
          "internalType": "address",
          "name": "owner",
          "type": "address"
        },
        {
          "indexed": true,
          "internalType": "address",
          "name": "approved",
          "type": "address"
        },
        {
          "indexed": true,
          "internalType": "uint256",
          "name": "tokenId",
          "type": "uint256"
        }
      ],
      "name": "Approval",
      "type": "event"
    },
    {
      "anonymous": false,
      "inputs": [
        {
          "indexed": true,
          "internalType": "address",
          "name": "owner",
          "type": "address"
        },
        {
          "indexed": true,
          "internalType": "address",
          "name": "operator",
          "type": "address"
        },
        {
          "indexed": false,
          "internalType": "bool",
          "name": "approved",
          "type": "bool"
        }
      ],
      "name": "ApprovalForAll",
      "type": "event"
    },
    {
      "anonymous": false,
      "inputs": [
        {
          "indexed": false,
          "internalType": "address",
          "name": "sender",
          "type": "address"
        },
        {
          "indexed": false,
          "internalType": "uint256",
          "name": "tokenId",
          "type": "uint256"
        },
        {
          "indexed": false,
          "internalType": "string",
          "name": "tokenURI",
          "type": "string"
        }
      ],
      "name": "Newtestnft",
      "type": "event"
    },
    {
      "anonymous": false,
      "inputs": [
        {
          "indexed": true,
          "internalType": "address",
          "name": "from",
          "type": "address"
        },
        {
          "indexed": true,
          "internalType": "address",
          "name": "to",
          "type": "address"
        },
        {
          "indexed": true,
          "internalType": "uint256",
          "name": "tokenId",
          "type": "uint256"
        }
      ],
      "name": "Transfer",
      "type": "event"
    },
    {
      "inputs": [
        {
          "internalType": "address",
          "name": "to",
          "type": "address"
        },
        {
          "internalType": "uint256",
          "name": "tokenId",
          "type": "uint256"
        }
      ],
      "name": "approve",
      "outputs": [],
      "stateMutability": "nonpayable",
      "type": "function"
    },
    {
      "inputs": [
        {
          "internalType": "address",
          "name": "owner",
          "type": "address"
        }
      ],
      "name": "balanceOf",
      "outputs": [
        {
          "internalType": "uint256",
          "name": "",
          "type": "uint256"
        }
      ],
      "stateMutability": "view",
      "type": "function"
    },
    {
      "inputs": [
        {
          "internalType": "uint256",
          "name": "tokenId",
          "type": "uint256"
        }
      ],
      "name": "getApproved",
      "outputs": [
        {
          "internalType": "address",
          "name": "",
          "type": "address"
        }
      ],
      "stateMutability": "view",
      "type": "function"
    },
    {
      "inputs": [
        {
          "internalType": "address",
          "name": "owner",
          "type": "address"
        },
        {
          "internalType": "address",
          "name": "operator",
          "type": "address"
        }
      ],
      "name": "isApprovedForAll",
      "outputs": [
        {
          "internalType": "bool",
          "name": "",
          "type": "bool"
        }
      ],
      "stateMutability": "view",
      "type": "function"
    },
    {
      "inputs": [
        {
          "internalType": "string",
          "name": "token_URI",
          "type": "string"
        }
      ],
      "name": "mintItem",
      "outputs": [],
      "stateMutability": "nonpayable",
      "type": "function"
    },
    {
      "inputs": [],
      "name": "name",
      "outputs": [
        {
          "internalType": "string",
          "name": "",
          "type": "string"
        }
      ],
      "stateMutability": "view",
      "type": "function"
    },
    {
      "inputs": [
        {
          "internalType": "uint256",
          "name": "tokenId",
          "type": "uint256"
        }
      ],
      "name": "ownerOf",
      "outputs": [
        {
          "internalType": "address",
          "name": "",
          "type": "address"
        }
      ],
      "stateMutability": "view",
      "type": "function"
    },
    {
      "inputs": [
        {
          "internalType": "address",
          "name": "from",
          "type": "address"
        },
        {
          "internalType": "address",
          "name": "to",
          "type": "address"
        },
        {
          "internalType": "uint256",
          "name": "tokenId",
          "type": "uint256"
        }
      ],
      "name": "safeTransferFrom",
      "outputs": [],
      "stateMutability": "nonpayable",
      "type": "function"
    },
    {
      "inputs": [
        {
          "internalType": "address",
          "name": "from",
          "type": "address"
        },
        {
          "internalType": "address",
          "name": "to",
          "type": "address"
        },
        {
          "internalType": "uint256",
          "name": "tokenId",
          "type": "uint256"
        },
        {
          "internalType": "bytes",
          "name": "data",
          "type": "bytes"
        }
      ],
      "name": "safeTransferFrom",
      "outputs": [],
      "stateMutability": "nonpayable",
      "type": "function"
    },
    {
      "inputs": [
        {
          "internalType": "address",
          "name": "operator",
          "type": "address"
        },
        {
          "internalType": "bool",
          "name": "approved",
          "type": "bool"
        }
      ],
      "name": "setApprovalForAll",
      "outputs": [],
      "stateMutability": "nonpayable",
      "type": "function"
    },
    {
      "inputs": [
        {
          "internalType": "bytes4",
          "name": "interfaceId",
          "type": "bytes4"
        }
      ],
      "name": "supportsInterface",
      "outputs": [
        {
          "internalType": "bool",
          "name": "",
          "type": "bool"
        }
      ],
      "stateMutability": "view",
      "type": "function"
    },
    {
      "inputs": [],
      "name": "symbol",
      "outputs": [
        {
          "internalType": "string",
          "name": "",
          "type": "string"
        }
      ],
      "stateMutability": "view",
      "type": "function"
    },
    {
      "inputs": [
        {
          "internalType": "uint256",
          "name": "tokenId",
          "type": "uint256"
        }
      ],
      "name": "tokenURI",
      "outputs": [
        {
          "internalType": "string",
          "name": "",
          "type": "string"
        }
      ],
      "stateMutability": "view",
      "type": "function"
    },
    {
      "inputs": [
        {
          "internalType": "address",
          "name": "from",
          "type": "address"
        },
        {
          "internalType": "address",
          "name": "to",
          "type": "address"
        },
        {
          "internalType": "uint256",
          "name": "tokenId",
          "type": "uint256"
        }
      ],
      "name": "transferFrom",
      "outputs": [],
      "stateMutability": "nonpayable",
      "type": "function"
    }
  ],
  "bytecode": "0x60806040523480156200001157600080fd5b506040518060400160405280602081526020017f455448206f6e204861726d6f6e79207573696e67204e46542e53746f726167658152506040518060400160405280600681526020017f484e46542d4c0000000000000000000000000000000000000000000000000000815250816000908051906020019062000096929190620000b8565b508060019080519060200190620000af929190620000b8565b505050620001cd565b828054620000c69062000168565b90600052602060002090601f016020900481019282620000ea576000855562000136565b82601f106200010557805160ff191683800117855562000136565b8280016001018555821562000136579182015b828111156200013557825182559160200191906001019062000118565b5b50905062000145919062000149565b5090565b5b80821115620001645760008160009055506001016200014a565b5090565b600060028204905060018216806200018157607f821691505b602082108114156200019857620001976200019e565b5b50919050565b7f4e487b7100000000000000000000000000000000000000000000000000000000600052602260045260246000fd5b6127fb80620001dd6000396000f3fe608060405234801561001057600080fd5b50600436106100ea5760003560e01c806370a082311161008c578063b88d4fde11610066578063b88d4fde1461025b578063c754584914610277578063c87b56dd14610293578063e985e9c5146102c3576100ea565b806370a08231146101f157806395d89b4114610221578063a22cb4651461023f576100ea565b8063095ea7b3116100c8578063095ea7b31461016d57806323b872dd1461018957806342842e0e146101a55780636352211e146101c1576100ea565b806301ffc9a7146100ef57806306fdde031461011f578063081812fc1461013d575b600080fd5b61010960048036038101906101049190611b17565b6102f3565b6040516101169190611ef2565b60405180910390f35b6101276103d5565b6040516101349190611f0d565b60405180910390f35b61015760048036038101906101529190611bba565b610467565b6040516101649190611e4d565b60405180910390f35b61018760048036038101906101829190611ad7565b6104ad565b005b6101a3600480360381019061019e91906119c1565b6105c5565b005b6101bf60048036038101906101ba91906119c1565b610625565b005b6101db60048036038101906101d69190611bba565b610645565b6040516101e89190611e4d565b60405180910390f35b61020b60048036038101906102069190611954565b6106cc565b60405161021891906120cf565b60405180910390f35b610229610784565b6040516102369190611f0d565b60405180910390f35b61025960048036038101906102549190611a97565b610816565b005b61027560048036038101906102709190611a14565b61082c565b005b610291600480360381019061028c9190611b71565b61088e565b005b6102ad60048036038101906102a89190611bba565b610910565b6040516102ba9190611f0d565b60405180910390f35b6102dd60048036038101906102d89190611981565b6109ec565b6040516102ea9190611ef2565b60405180910390f35b60007f80ac58cd000000000000000000000000000000000000000000000000000000007bffffffffffffffffffffffffffffffffffffffffffffffffffffffff1916827bffffffffffffffffffffffffffffffffffffffffffffffffffffffff191614806103be57507f5b5e139f000000000000000000000000000000000000000000000000000000007bffffffffffffffffffffffffffffffffffffffffffffffffffffffff1916827bffffffffffffffffffffffffffffffffffffffffffffffffffffffff1916145b806103ce57506103cd82610a80565b5b9050919050565b6060600080546103e4906122e9565b80601f0160208091040260200160405190810160405280929190818152602001828054610410906122e9565b801561045d5780601f106104325761010080835404028352916020019161045d565b820191906000526020600020905b81548152906001019060200180831161044057829003601f168201915b5050505050905090565b600061047282610aea565b6004600083815260200190815260200160002060009054906101000a900473ffffffffffffffffffffffffffffffffffffffff169050919050565b60006104b882610645565b90508073ffffffffffffffffffffffffffffffffffffffff168373ffffffffffffffffffffffffffffffffffffffff161415610529576040517f08c379a00000000000000000000000000000000000000000000000000000000081526004016105209061208f565b60405180910390fd5b8073ffffffffffffffffffffffffffffffffffffffff16610548610b35565b73ffffffffffffffffffffffffffffffffffffffff161480610577575061057681610571610b35565b6109ec565b5b6105b6576040517f08c379a00000000000000000000000000000000000000000000000000000000081526004016105ad906120af565b60405180910390fd5b6105c08383610b3d565b505050565b6105d66105d0610b35565b82610bf6565b610615576040517f08c379a000000000000000000000000000000000000000000000000000000000815260040161060c90611f2f565b60405180910390fd5b610620838383610c8b565b505050565b6106408383836040518060200160405280600081525061082c565b505050565b60008061065183610f85565b9050600073ffffffffffffffffffffffffffffffffffffffff168173ffffffffffffffffffffffffffffffffffffffff1614156106c3576040517f08c379a00000000000000000000000000000000000000000000000000000000081526004016106ba9061206f565b60405180910390fd5b80915050919050565b60008073ffffffffffffffffffffffffffffffffffffffff168273ffffffffffffffffffffffffffffffffffffffff16141561073d576040517f08c379a000000000000000000000000000000000000000000000000000000000815260040161073490611fef565b60405180910390fd5b600360008373ffffffffffffffffffffffffffffffffffffffff1673ffffffffffffffffffffffffffffffffffffffff168152602001908152602001600020549050919050565b606060018054610793906122e9565b80601f01602080910402602001604051908101604052809291908181526020018280546107bf906122e9565b801561080c5780601f106107e15761010080835404028352916020019161080c565b820191906000526020600020905b8154815290600101906020018083116107ef57829003601f168201915b5050505050905090565b610828610821610b35565b8383610fc2565b5050565b61083d610837610b35565b83610bf6565b61087c576040517f08c379a000000000000000000000000000000000000000000000000000000000815260040161087390611f2f565b60405180910390fd5b6108888484848461112f565b50505050565b610898600761118b565b60006108a460076111a1565b90506108b033826111af565b6108ba81836113cd565b81600890805190602001906108d0929190611768565b507f9e508a352a832ce9c60e28c3eb0bab8d6e7717949616581bac2c33061acbcf0e33828460405161090493929190611eb4565b60405180910390a15050565b606061091b82611441565b61095a576040517f08c379a00000000000000000000000000000000000000000000000000000000081526004016109519061204f565b60405180910390fd5b60088054610967906122e9565b80601f0160208091040260200160405190810160405280929190818152602001828054610993906122e9565b80156109e05780601f106109b5576101008083540402835291602001916109e0565b820191906000526020600020905b8154815290600101906020018083116109c357829003601f168201915b50505050509050919050565b6000600560008473ffffffffffffffffffffffffffffffffffffffff1673ffffffffffffffffffffffffffffffffffffffff16815260200190815260200160002060008373ffffffffffffffffffffffffffffffffffffffff1673ffffffffffffffffffffffffffffffffffffffff16815260200190815260200160002060009054906101000a900460ff16905092915050565b60007f01ffc9a7000000000000000000000000000000000000000000000000000000007bffffffffffffffffffffffffffffffffffffffffffffffffffffffff1916827bffffffffffffffffffffffffffffffffffffffffffffffffffffffff1916149050919050565b610af381611441565b610b32576040517f08c379a0000000000000000000000000000000000000000000000000000000008152600401610b299061206f565b60405180910390fd5b50565b600033905090565b816004600083815260200190815260200160002060006101000a81548173ffffffffffffffffffffffffffffffffffffffff021916908373ffffffffffffffffffffffffffffffffffffffff160217905550808273ffffffffffffffffffffffffffffffffffffffff16610bb083610645565b73ffffffffffffffffffffffffffffffffffffffff167f8c5be1e5ebec7d5bd14f71427d1e84f3dd0314c0f7b2291e5b200ac8c7c3b92560405160405180910390a45050565b600080610c0283610645565b90508073ffffffffffffffffffffffffffffffffffffffff168473ffffffffffffffffffffffffffffffffffffffff161480610c445750610c4381856109ec565b5b80610c8257508373ffffffffffffffffffffffffffffffffffffffff16610c6a84610467565b73ffffffffffffffffffffffffffffffffffffffff16145b91505092915050565b8273ffffffffffffffffffffffffffffffffffffffff16610cab82610645565b73ffffffffffffffffffffffffffffffffffffffff1614610d01576040517f08c379a0000000000000000000000000000000000000000000000000000000008152600401610cf890611f6f565b60405180910390fd5b600073ffffffffffffffffffffffffffffffffffffffff168273ffffffffffffffffffffffffffffffffffffffff161415610d71576040517f08c379a0000000000000000000000000000000000000000000000000000000008152600401610d6890611faf565b60405180910390fd5b610d7e8383836001611482565b8273ffffffffffffffffffffffffffffffffffffffff16610d9e82610645565b73ffffffffffffffffffffffffffffffffffffffff1614610df4576040517f08c379a0000000000000000000000000000000000000000000000000000000008152600401610deb90611f6f565b60405180910390fd5b6004600082815260200190815260200160002060006101000a81549073ffffffffffffffffffffffffffffffffffffffff02191690556001600360008573ffffffffffffffffffffffffffffffffffffffff1673ffffffffffffffffffffffffffffffffffffffff168152602001908152602001600020600082825403925050819055506001600360008473ffffffffffffffffffffffffffffffffffffffff1673ffffffffffffffffffffffffffffffffffffffff16815260200190815260200160002060008282540192505081905550816002600083815260200190815260200160002060006101000a81548173ffffffffffffffffffffffffffffffffffffffff021916908373ffffffffffffffffffffffffffffffffffffffff160217905550808273ffffffffffffffffffffffffffffffffffffffff168473ffffffffffffffffffffffffffffffffffffffff167fddf252ad1be2c89b69c2b068fc378daa952ba7f163c4a11628f55a4df523b3ef60405160405180910390a4610f8083838360016115a8565b505050565b60006002600083815260200190815260200160002060009054906101000a900473ffffffffffffffffffffffffffffffffffffffff169050919050565b8173ffffffffffffffffffffffffffffffffffffffff168373ffffffffffffffffffffffffffffffffffffffff161415611031576040517f08c379a000000000000000000000000000000000000000000000000000000000815260040161102890611fcf565b60405180910390fd5b80600560008573ffffffffffffffffffffffffffffffffffffffff1673ffffffffffffffffffffffffffffffffffffffff16815260200190815260200160002060008473ffffffffffffffffffffffffffffffffffffffff1673ffffffffffffffffffffffffffffffffffffffff16815260200190815260200160002060006101000a81548160ff0219169083151502179055508173ffffffffffffffffffffffffffffffffffffffff168373ffffffffffffffffffffffffffffffffffffffff167f17307eab39ab6107e8899845ad3d59bd9653f200f220920489ca2b5937696c31836040516111229190611ef2565b60405180910390a3505050565b61113a848484610c8b565b611146848484846115ae565b611185576040517f08c379a000000000000000000000000000000000000000000000000000000000815260040161117c90611f4f565b60405180910390fd5b50505050565b6001816000016000828254019250508190555050565b600081600001549050919050565b600073ffffffffffffffffffffffffffffffffffffffff168273ffffffffffffffffffffffffffffffffffffffff16141561121f576040517f08c379a00000000000000000000000000000000000000000000000000000000081526004016112169061202f565b60405180910390fd5b61122881611441565b15611268576040517f08c379a000000000000000000000000000000000000000000000000000000000815260040161125f90611f8f565b60405180910390fd5b611276600083836001611482565b61127f81611441565b156112bf576040517f08c379a00000000000000000000000000000000000000000000000000000000081526004016112b690611f8f565b60405180910390fd5b6001600360008473ffffffffffffffffffffffffffffffffffffffff1673ffffffffffffffffffffffffffffffffffffffff16815260200190815260200160002060008282540192505081905550816002600083815260200190815260200160002060006101000a81548173ffffffffffffffffffffffffffffffffffffffff021916908373ffffffffffffffffffffffffffffffffffffffff160217905550808273ffffffffffffffffffffffffffffffffffffffff16600073ffffffffffffffffffffffffffffffffffffffff167fddf252ad1be2c89b69c2b068fc378daa952ba7f163c4a11628f55a4df523b3ef60405160405180910390a46113c96000838360016115a8565b5050565b6113d682611441565b611415576040517f08c379a000000000000000000000000000000000000000000000000000000000815260040161140c9061200f565b60405180910390fd5b8060066000848152602001908152602001600020908051906020019061143c929190611768565b505050565b60008073ffffffffffffffffffffffffffffffffffffffff1661146383610f85565b73ffffffffffffffffffffffffffffffffffffffff1614159050919050565b60018111156115a257600073ffffffffffffffffffffffffffffffffffffffff168473ffffffffffffffffffffffffffffffffffffffff16146115165780600360008673ffffffffffffffffffffffffffffffffffffffff1673ffffffffffffffffffffffffffffffffffffffff168152602001908152602001600020600082825461150e91906121ff565b925050819055505b600073ffffffffffffffffffffffffffffffffffffffff168373ffffffffffffffffffffffffffffffffffffffff16146115a15780600360008573ffffffffffffffffffffffffffffffffffffffff1673ffffffffffffffffffffffffffffffffffffffff168152602001908152602001600020600082825461159991906121a9565b925050819055505b5b50505050565b50505050565b60006115cf8473ffffffffffffffffffffffffffffffffffffffff16611745565b15611738578373ffffffffffffffffffffffffffffffffffffffff1663150b7a026115f8610b35565b8786866040518563ffffffff1660e01b815260040161161a9493929190611e68565b602060405180830381600087803b15801561163457600080fd5b505af192505050801561166557506040513d601f19601f820116820180604052508101906116629190611b44565b60015b6116e8573d8060008114611695576040519150601f19603f3d011682016040523d82523d6000602084013e61169a565b606091505b506000815114156116e0576040517f08c379a00000000000000000000000000000000000000000000000000000000081526004016116d790611f4f565b60405180910390fd5b805181602001fd5b63150b7a0260e01b7bffffffffffffffffffffffffffffffffffffffffffffffffffffffff1916817bffffffffffffffffffffffffffffffffffffffffffffffffffffffff19161491505061173d565b600190505b949350505050565b6000808273ffffffffffffffffffffffffffffffffffffffff163b119050919050565b828054611774906122e9565b90600052602060002090601f01602090048101928261179657600085556117dd565b82601f106117af57805160ff19168380011785556117dd565b828001600101855582156117dd579182015b828111156117dc5782518255916020019190600101906117c1565b5b5090506117ea91906117ee565b5090565b5b808211156118075760008160009055506001016117ef565b5090565b600061181e6118198461210f565b6120ea565b90508281526020810184848401111561183a576118396123de565b5b6118458482856122a7565b509392505050565b600061186061185b84612140565b6120ea565b90508281526020810184848401111561187c5761187b6123de565b5b6118878482856122a7565b509392505050565b60008135905061189e81612769565b92915050565b6000813590506118b381612780565b92915050565b6000813590506118c881612797565b92915050565b6000815190506118dd81612797565b92915050565b600082601f8301126118f8576118f76123d9565b5b813561190884826020860161180b565b91505092915050565b600082601f830112611926576119256123d9565b5b813561193684826020860161184d565b91505092915050565b60008135905061194e816127ae565b92915050565b60006020828403121561196a576119696123e8565b5b60006119788482850161188f565b91505092915050565b60008060408385031215611998576119976123e8565b5b60006119a68582860161188f565b92505060206119b78582860161188f565b9150509250929050565b6000806000606084860312156119da576119d96123e8565b5b60006119e88682870161188f565b93505060206119f98682870161188f565b9250506040611a0a8682870161193f565b9150509250925092565b60008060008060808587031215611a2e57611a2d6123e8565b5b6000611a3c8782880161188f565b9450506020611a4d8782880161188f565b9350506040611a5e8782880161193f565b925050606085013567ffffffffffffffff811115611a7f57611a7e6123e3565b5b611a8b878288016118e3565b91505092959194509250565b60008060408385031215611aae57611aad6123e8565b5b6000611abc8582860161188f565b9250506020611acd858286016118a4565b9150509250929050565b60008060408385031215611aee57611aed6123e8565b5b6000611afc8582860161188f565b9250506020611b0d8582860161193f565b9150509250929050565b600060208284031215611b2d57611b2c6123e8565b5b6000611b3b848285016118b9565b91505092915050565b600060208284031215611b5a57611b596123e8565b5b6000611b68848285016118ce565b91505092915050565b600060208284031215611b8757611b866123e8565b5b600082013567ffffffffffffffff811115611ba557611ba46123e3565b5b611bb184828501611911565b91505092915050565b600060208284031215611bd057611bcf6123e8565b5b6000611bde8482850161193f565b91505092915050565b611bf081612233565b82525050565b611bff81612245565b82525050565b6000611c1082612171565b611c1a8185612187565b9350611c2a8185602086016122b6565b611c33816123ed565b840191505092915050565b6000611c498261217c565b611c538185612198565b9350611c638185602086016122b6565b611c6c816123ed565b840191505092915050565b6000611c84602d83612198565b9150611c8f826123fe565b604082019050919050565b6000611ca7603283612198565b9150611cb28261244d565b604082019050919050565b6000611cca602583612198565b9150611cd58261249c565b604082019050919050565b6000611ced601c83612198565b9150611cf8826124eb565b602082019050919050565b6000611d10602483612198565b9150611d1b82612514565b604082019050919050565b6000611d33601983612198565b9150611d3e82612563565b602082019050919050565b6000611d56602983612198565b9150611d618261258c565b604082019050919050565b6000611d79602e83612198565b9150611d84826125db565b604082019050919050565b6000611d9c602083612198565b9150611da78261262a565b602082019050919050565b6000611dbf602f83612198565b9150611dca82612653565b604082019050919050565b6000611de2601883612198565b9150611ded826126a2565b602082019050919050565b6000611e05602183612198565b9150611e10826126cb565b604082019050919050565b6000611e28603d83612198565b9150611e338261271a565b604082019050919050565b611e478161229d565b82525050565b6000602082019050611e626000830184611be7565b92915050565b6000608082019050611e7d6000830187611be7565b611e8a6020830186611be7565b611e976040830185611e3e565b8181036060830152611ea98184611c05565b905095945050505050565b6000606082019050611ec96000830186611be7565b611ed66020830185611e3e565b8181036040830152611ee88184611c3e565b9050949350505050565b6000602082019050611f076000830184611bf6565b92915050565b60006020820190508181036000830152611f278184611c3e565b905092915050565b60006020820190508181036000830152611f4881611c77565b9050919050565b60006020820190508181036000830152611f6881611c9a565b9050919050565b60006020820190508181036000830152611f8881611cbd565b9050919050565b60006020820190508181036000830152611fa881611ce0565b9050919050565b60006020820190508181036000830152611fc881611d03565b9050919050565b60006020820190508181036000830152611fe881611d26565b9050919050565b6000602082019050818103600083015261200881611d49565b9050919050565b6000602082019050818103600083015261202881611d6c565b9050919050565b6000602082019050818103600083015261204881611d8f565b9050919050565b6000602082019050818103600083015261206881611db2565b9050919050565b6000602082019050818103600083015261208881611dd5565b9050919050565b600060208201905081810360008301526120a881611df8565b9050919050565b600060208201905081810360008301526120c881611e1b565b9050919050565b60006020820190506120e46000830184611e3e565b92915050565b60006120f4612105565b9050612100828261231b565b919050565b6000604051905090565b600067ffffffffffffffff82111561212a576121296123aa565b5b612133826123ed565b9050602081019050919050565b600067ffffffffffffffff82111561215b5761215a6123aa565b5b612164826123ed565b9050602081019050919050565b600081519050919050565b600081519050919050565b600082825260208201905092915050565b600082825260208201905092915050565b60006121b48261229d565b91506121bf8361229d565b9250827fffffffffffffffffffffffffffffffffffffffffffffffffffffffffffffffff038211156121f4576121f361234c565b5b828201905092915050565b600061220a8261229d565b91506122158361229d565b9250828210156122285761222761234c565b5b828203905092915050565b600061223e8261227d565b9050919050565b60008115159050919050565b60007fffffffff0000000000000000000000000000000000000000000000000000000082169050919050565b600073ffffffffffffffffffffffffffffffffffffffff82169050919050565b6000819050919050565b82818337600083830152505050565b60005b838110156122d45780820151818401526020810190506122b9565b838111156122e3576000848401525b50505050565b6000600282049050600182168061230157607f821691505b602082108114156123155761231461237b565b5b50919050565b612324826123ed565b810181811067ffffffffffffffff82111715612343576123426123aa565b5b80604052505050565b7f4e487b7100000000000000000000000000000000000000000000000000000000600052601160045260246000fd5b7f4e487b7100000000000000000000000000000000000000000000000000000000600052602260045260246000fd5b7f4e487b7100000000000000000000000000000000000000000000000000000000600052604160045260246000fd5b600080fd5b600080fd5b600080fd5b600080fd5b6000601f19601f8301169050919050565b7f4552433732313a2063616c6c6572206973206e6f7420746f6b656e206f776e6560008201527f72206f7220617070726f76656400000000000000000000000000000000000000602082015250565b7f4552433732313a207472616e7366657220746f206e6f6e20455243373231526560008201527f63656976657220696d706c656d656e7465720000000000000000000000000000602082015250565b7f4552433732313a207472616e736665722066726f6d20696e636f72726563742060008201527f6f776e6572000000000000000000000000000000000000000000000000000000602082015250565b7f4552433732313a20746f6b656e20616c7265616479206d696e74656400000000600082015250565b7f4552433732313a207472616e7366657220746f20746865207a65726f2061646460008201527f7265737300000000000000000000000000000000000000000000000000000000602082015250565b7f4552433732313a20617070726f766520746f2063616c6c657200000000000000600082015250565b7f4552433732313a2061646472657373207a65726f206973206e6f74206120766160008201527f6c6964206f776e65720000000000000000000000000000000000000000000000602082015250565b7f45524337323155524953746f726167653a2055524920736574206f66206e6f6e60008201527f6578697374656e7420746f6b656e000000000000000000000000000000000000602082015250565b7f4552433732313a206d696e7420746f20746865207a65726f2061646472657373600082015250565b7f4552433732314d657461646174613a2055524920717565727920666f72206e6f60008201527f6e6578697374656e7420746f6b656e0000000000000000000000000000000000602082015250565b7f4552433732313a20696e76616c696420746f6b656e2049440000000000000000600082015250565b7f4552433732313a20617070726f76616c20746f2063757272656e74206f776e6560008201527f7200000000000000000000000000000000000000000000000000000000000000602082015250565b7f4552433732313a20617070726f76652063616c6c6572206973206e6f7420746f60008201527f6b656e206f776e6572206f7220617070726f76656420666f7220616c6c000000602082015250565b61277281612233565b811461277d57600080fd5b50565b61278981612245565b811461279457600080fd5b50565b6127a081612251565b81146127ab57600080fd5b50565b6127b78161229d565b81146127c257600080fd5b5056fea2646970667358221220a96ede1869082ddb90399774b13d7d8f49dd2ad88a8cb9c6bf8ec84e2d9d097c64736f6c63430008070033",
  "linkReferences": {},
  "deployedLinkReferences": {}
}